{
  "contractName": "medical",
  "abi": [
    {
      "inputs": [
        {
          "internalType": "uint256",
          "name": "",
          "type": "uint256"
        }
      ],
      "name": "doctorList",
      "outputs": [
        {
          "internalType": "address",
          "name": "",
          "type": "address"
        }
      ],
      "stateMutability": "view",
      "type": "function"
    },
    {
      "inputs": [
        {
          "internalType": "uint256",
          "name": "",
          "type": "uint256"
        }
      ],
      "name": "patientList",
      "outputs": [
        {
          "internalType": "address",
          "name": "",
          "type": "address"
        }
      ],
      "stateMutability": "view",
      "type": "function"
    },
    {
      "inputs": [
        {
          "internalType": "string",
          "name": "_name",
          "type": "string"
        },
        {
          "internalType": "uint256",
          "name": "_age",
          "type": "uint256"
        },
        {
          "internalType": "uint256",
          "name": "_designation",
          "type": "uint256"
        },
        {
          "internalType": "string",
          "name": "_hash",
          "type": "string"
        }
      ],
      "name": "add_agent",
      "outputs": [
        {
          "internalType": "string",
          "name": "",
          "type": "string"
        }
      ],
      "stateMutability": "nonpayable",
      "type": "function"
    },
    {
      "inputs": [
        {
          "internalType": "address",
          "name": "addr",
          "type": "address"
        }
      ],
      "name": "get_patient",
      "outputs": [
        {
          "internalType": "string",
          "name": "",
          "type": "string"
        },
        {
          "internalType": "uint256",
          "name": "",
          "type": "uint256"
        },
        {
          "internalType": "uint256[]",
          "name": "",
          "type": "uint256[]"
        },
        {
          "internalType": "address",
          "name": "",
          "type": "address"
        },
        {
          "internalType": "string",
          "name": "",
          "type": "string"
        }
      ],
      "stateMutability": "view",
      "type": "function"
    },
    {
      "inputs": [
        {
          "internalType": "address",
          "name": "addr",
          "type": "address"
        }
      ],
      "name": "get_doctor",
      "outputs": [
        {
          "internalType": "string",
          "name": "",
          "type": "string"
        },
        {
          "internalType": "uint256",
          "name": "",
          "type": "uint256"
        }
      ],
      "stateMutability": "view",
      "type": "function"
    },
    {
      "inputs": [
        {
          "internalType": "address",
          "name": "addr",
          "type": "address"
        }
      ],
      "name": "permit_access",
      "outputs": [],
      "stateMutability": "payable",
      "type": "function"
    },
    {
      "inputs": [
        {
          "internalType": "address",
          "name": "paddr",
          "type": "address"
        },
        {
          "internalType": "address",
          "name": "daddr",
          "type": "address"
        }
      ],
      "name": "remove_patient",
      "outputs": [],
      "stateMutability": "nonpayable",
      "type": "function"
    },
    {
      "inputs": [
        {
          "internalType": "address",
          "name": "addr",
          "type": "address"
        }
      ],
      "name": "get_accessed_doctorlist_for_patient",
      "outputs": [
        {
          "internalType": "address[]",
          "name": "",
          "type": "address[]"
        }
      ],
      "stateMutability": "view",
      "type": "function"
    },
    {
      "inputs": [
        {
          "internalType": "address",
          "name": "addr",
          "type": "address"
        }
      ],
      "name": "get_accessed_patientlist_for_doctor",
      "outputs": [
        {
          "internalType": "address[]",
          "name": "",
          "type": "address[]"
        }
      ],
      "stateMutability": "view",
      "type": "function"
    },
    {
      "inputs": [
        {
          "internalType": "address",
          "name": "daddr",
          "type": "address"
        }
      ],
      "name": "revoke_access",
      "outputs": [],
      "stateMutability": "payable",
      "type": "function"
    },
    {
      "inputs": [],
      "name": "get_patient_list",
      "outputs": [
        {
          "internalType": "address[]",
          "name": "",
          "type": "address[]"
        }
      ],
      "stateMutability": "view",
      "type": "function"
    },
    {
      "inputs": [],
      "name": "get_doctor_list",
      "outputs": [
        {
          "internalType": "address[]",
          "name": "",
          "type": "address[]"
        }
      ],
      "stateMutability": "view",
      "type": "function"
    },
    {
      "inputs": [
        {
          "internalType": "address",
          "name": "paddr",
          "type": "address"
        }
      ],
      "name": "get_hash",
      "outputs": [
        {
          "internalType": "string",
          "name": "",
          "type": "string"
        }
      ],
      "stateMutability": "view",
      "type": "function"
    }
  ],
  "bytecode": "0x608060405234801561001057600080fd5b50611b87806100206000396000f3fe6080604052600436106100c15760003560e01c80637e1519ce1161007f578063c39e963511610059578063c39e96351461029a578063dd44176b146102c5578063e81ac05414610302578063f02d90a41461032d576100c1565b80637e1519ce14610204578063babb1d4114610241578063bcffb7ca1461027e576100c1565b80627ee3ce146100c65780630362fe9b14610103578063127ca4b41461012c57806327b1dcee146101695780634042d2d41461018557806356c98c48146101c6575b600080fd5b3480156100d257600080fd5b506100ed60048036038101906100e89190611420565b61036a565b6040516100fa919061150b565b60405180910390f35b34801561010f57600080fd5b5061012a6004803603810190610125919061152d565b610440565b005b34801561013857600080fd5b50610153600480360381019061014e91906115a3565b6104da565b60405161016091906115df565b60405180910390f35b610183600480360381019061017e9190611420565b610519565b005b34801561019157600080fd5b506101ac60048036038101906101a79190611420565b610526565b6040516101bd959493929190611760565b60405180910390f35b3480156101d257600080fd5b506101ed60048036038101906101e89190611420565b610816565b6040516101fb9291906117c8565b60405180910390f35b34801561021057600080fd5b5061022b60048036038101906102269190611420565b610934565b60405161023891906117f8565b60405180910390f35b34801561024d57600080fd5b50610268600480360381019061026391906115a3565b610a08565b60405161027591906115df565b60405180910390f35b61029860048036038101906102939190611420565b610a47565b005b3480156102a657600080fd5b506102af610b90565b6040516102bc919061150b565b60405180910390f35b3480156102d157600080fd5b506102ec60048036038101906102e79190611420565b610c1e565b6040516102f9919061150b565b60405180910390f35b34801561030e57600080fd5b50610317610cee565b604051610324919061150b565b60405180910390f35b34801561033957600080fd5b50610354600480360381019061034f919061194f565b610d7c565b60405161036191906117f8565b60405180910390f35b60606000600260008473ffffffffffffffffffffffffffffffffffffffff1673ffffffffffffffffffffffffffffffffffffffff16815260200190815260200160002060020190508080548060200260200160405190810160405280929190818152602001828054801561043357602002820191906000526020600020905b8160009054906101000a900473ffffffffffffffffffffffffffffffffffffffff1673ffffffffffffffffffffffffffffffffffffffff16815260200190600101908083116103e9575b5050505050915050919050565b61048b600360008373ffffffffffffffffffffffffffffffffffffffff1673ffffffffffffffffffffffffffffffffffffffff16815260200190815260200160002060020183610ffc565b6104d6600260008473ffffffffffffffffffffffffffffffffffffffff1673ffffffffffffffffffffffffffffffffffffffff16815260200190815260200160002060020182610ffc565b5050565b600181815481106104ea57600080fd5b906000526020600020016000915054906101000a900473ffffffffffffffffffffffffffffffffffffffff1681565b6105233382610440565b50565b60606000606060006060600260008773ffffffffffffffffffffffffffffffffffffffff1673ffffffffffffffffffffffffffffffffffffffff168152602001908152602001600020600001600260008873ffffffffffffffffffffffffffffffffffffffff1673ffffffffffffffffffffffffffffffffffffffff16815260200190815260200160002060010154600260008973ffffffffffffffffffffffffffffffffffffffff1673ffffffffffffffffffffffffffffffffffffffff168152602001908152602001600020600301600460008a73ffffffffffffffffffffffffffffffffffffffff1673ffffffffffffffffffffffffffffffffffffffff16815260200190815260200160002060009054906101000a900473ffffffffffffffffffffffffffffffffffffffff16600260008b73ffffffffffffffffffffffffffffffffffffffff1673ffffffffffffffffffffffffffffffffffffffff1681526020019081526020016000206004018480546106a590611a1d565b80601f01602080910402602001604051908101604052809291908181526020018280546106d190611a1d565b801561071e5780601f106106f35761010080835404028352916020019161071e565b820191906000526020600020905b81548152906001019060200180831161070157829003601f168201915b505050505094508280548060200260200160405190810160405280929190818152602001828054801561077057602002820191906000526020600020905b81548152602001906001019080831161075c575b5050505050925080805461078390611a1d565b80601f01602080910402602001604051908101604052809291908181526020018280546107af90611a1d565b80156107fc5780601f106107d1576101008083540402835291602001916107fc565b820191906000526020600020905b8154815290600101906020018083116107df57829003601f168201915b505050505090509450945094509450945091939590929450565b60606000600360008473ffffffffffffffffffffffffffffffffffffffff1673ffffffffffffffffffffffffffffffffffffffff168152602001908152602001600020600001600360008573ffffffffffffffffffffffffffffffffffffffff1673ffffffffffffffffffffffffffffffffffffffff168152602001908152602001600020600101548180546108ab90611a1d565b80601f01602080910402602001604051908101604052809291908181526020018280546108d790611a1d565b80156109245780601f106108f957610100808354040283529160200191610924565b820191906000526020600020905b81548152906001019060200180831161090757829003601f168201915b5050505050915091509150915091565b6060600260008373ffffffffffffffffffffffffffffffffffffffff1673ffffffffffffffffffffffffffffffffffffffff168152602001908152602001600020600401805461098390611a1d565b80601f01602080910402602001604051908101604052809291908181526020018280546109af90611a1d565b80156109fc5780601f106109d1576101008083540402835291602001916109fc565b820191906000526020600020905b8154815290600101906020018083116109df57829003601f168201915b50505050509050919050565b60008181548110610a1857600080fd5b906000526020600020016000915054906101000a900473ffffffffffffffffffffffffffffffffffffffff1681565b600360008273ffffffffffffffffffffffffffffffffffffffff1673ffffffffffffffffffffffffffffffffffffffff168152602001908152602001600020600201339080600181540180825580915050600190039060005260206000200160009091909190916101000a81548173ffffffffffffffffffffffffffffffffffffffff021916908373ffffffffffffffffffffffffffffffffffffffff160217905550600260003373ffffffffffffffffffffffffffffffffffffffff1673ffffffffffffffffffffffffffffffffffffffff168152602001908152602001600020600201819080600181540180825580915050600190039060005260206000200160009091909190916101000a81548173ffffffffffffffffffffffffffffffffffffffff021916908373ffffffffffffffffffffffffffffffffffffffff16021790555050565b60606001805480602002602001604051908101604052809291908181526020018280548015610c1457602002820191906000526020600020905b8160009054906101000a900473ffffffffffffffffffffffffffffffffffffffff1673ffffffffffffffffffffffffffffffffffffffff1681526020019060010190808311610bca575b5050505050905090565b6060600360008373ffffffffffffffffffffffffffffffffffffffff1673ffffffffffffffffffffffffffffffffffffffff168152602001908152602001600020600201805480602002602001604051908101604052809291908181526020018280548015610ce257602002820191906000526020600020905b8160009054906101000a900473ffffffffffffffffffffffffffffffffffffffff1673ffffffffffffffffffffffffffffffffffffffff1681526020019060010190808311610c98575b50505050509050919050565b60606000805480602002602001604051908101604052809291908181526020018280548015610d7257602002820191906000526020600020905b8160009054906101000a900473ffffffffffffffffffffffffffffffffffffffff1673ffffffffffffffffffffffffffffffffffffffff1681526020019060010190808311610d28575b5050505050905090565b6060600033905060008403610edd57610d93611205565b8681600001819052508581602001818152505083816080018190525080600260003373ffffffffffffffffffffffffffffffffffffffff1673ffffffffffffffffffffffffffffffffffffffff1681526020019081526020016000206000820151816000019080519060200190610e0b929190611234565b50602082015181600101556040820151816002019080519060200190610e329291906112ba565b506060820151816003019080519060200190610e4f929190611344565b506080820151816004019080519060200190610e6c929190611234565b509050506000829080600181540180825580915050600190039060005260206000200160009091909190916101000a81548173ffffffffffffffffffffffffffffffffffffffff021916908373ffffffffffffffffffffffffffffffffffffffff1602179055508692505050610ff4565b60018403610fef5785600360008373ffffffffffffffffffffffffffffffffffffffff1673ffffffffffffffffffffffffffffffffffffffff1681526020019081526020016000206000019080519060200190610f3b929190611234565b5084600360008373ffffffffffffffffffffffffffffffffffffffff1673ffffffffffffffffffffffffffffffffffffffff168152602001908152602001600020600101819055506001819080600181540180825580915050600190039060005260206000200160009091909190916101000a81548173ffffffffffffffffffffffffffffffffffffffff021916908373ffffffffffffffffffffffffffffffffffffffff16021790555085915050610ff4565b600080fd5b949350505050565b60008060005b8480549050811015611099578373ffffffffffffffffffffffffffffffffffffffff1685828154811061103857611037611a4e565b5b9060005260206000200160009054906101000a900473ffffffffffffffffffffffffffffffffffffffff1673ffffffffffffffffffffffffffffffffffffffff160361108657600192508091505b808061109190611aac565b915050611002565b50600084805490509050826110ad57600080fd5b60018580549050036110fe578482815481106110cc576110cb611a4e565b5b9060005260206000200160006101000a81549073ffffffffffffffffffffffffffffffffffffffff02191690556111f0565b8460018261110c9190611af4565b8154811061111d5761111c611a4e565b5b9060005260206000200160009054906101000a900473ffffffffffffffffffffffffffffffffffffffff1685838154811061115b5761115a611a4e565b5b9060005260206000200160006101000a81548173ffffffffffffffffffffffffffffffffffffffff021916908373ffffffffffffffffffffffffffffffffffffffff160217905550846001826111b19190611af4565b815481106111c2576111c1611a4e565b5b9060005260206000200160006101000a81549073ffffffffffffffffffffffffffffffffffffffff02191690555b80806111fb90611b28565b9150505050505050565b6040518060a0016040528060608152602001600081526020016060815260200160608152602001606081525090565b82805461124090611a1d565b90600052602060002090601f01602090048101928261126257600085556112a9565b82601f1061127b57805160ff19168380011785556112a9565b828001600101855582156112a9579182015b828111156112a857825182559160200191906001019061128d565b5b5090506112b69190611391565b5090565b828054828255906000526020600020908101928215611333579160200282015b828111156113325782518260006101000a81548173ffffffffffffffffffffffffffffffffffffffff021916908373ffffffffffffffffffffffffffffffffffffffff160217905550916020019190600101906112da565b5b5090506113409190611391565b5090565b828054828255906000526020600020908101928215611380579160200282015b8281111561137f578251825591602001919060010190611364565b5b50905061138d9190611391565b5090565b5b808211156113aa576000816000905550600101611392565b5090565b6000604051905090565b600080fd5b600080fd5b600073ffffffffffffffffffffffffffffffffffffffff82169050919050565b60006113ed826113c2565b9050919050565b6113fd816113e2565b811461140857600080fd5b50565b60008135905061141a816113f4565b92915050565b600060208284031215611436576114356113b8565b5b60006114448482850161140b565b91505092915050565b600081519050919050565b600082825260208201905092915050565b6000819050602082019050919050565b611482816113e2565b82525050565b60006114948383611479565b60208301905092915050565b6000602082019050919050565b60006114b88261144d565b6114c28185611458565b93506114cd83611469565b8060005b838110156114fe5781516114e58882611488565b97506114f0836114a0565b9250506001810190506114d1565b5085935050505092915050565b6000602082019050818103600083015261152581846114ad565b905092915050565b60008060408385031215611544576115436113b8565b5b60006115528582860161140b565b92505060206115638582860161140b565b9150509250929050565b6000819050919050565b6115808161156d565b811461158b57600080fd5b50565b60008135905061159d81611577565b92915050565b6000602082840312156115b9576115b86113b8565b5b60006115c78482850161158e565b91505092915050565b6115d9816113e2565b82525050565b60006020820190506115f460008301846115d0565b92915050565b600081519050919050565b600082825260208201905092915050565b60005b83811015611634578082015181840152602081019050611619565b83811115611643576000848401525b50505050565b6000601f19601f8301169050919050565b6000611665826115fa565b61166f8185611605565b935061167f818560208601611616565b61168881611649565b840191505092915050565b61169c8161156d565b82525050565b600081519050919050565b600082825260208201905092915050565b6000819050602082019050919050565b6116d78161156d565b82525050565b60006116e983836116ce565b60208301905092915050565b6000602082019050919050565b600061170d826116a2565b61171781856116ad565b9350611722836116be565b8060005b8381101561175357815161173a88826116dd565b9750611745836116f5565b925050600181019050611726565b5085935050505092915050565b600060a082019050818103600083015261177a818861165a565b90506117896020830187611693565b818103604083015261179b8186611702565b90506117aa60608301856115d0565b81810360808301526117bc818461165a565b90509695505050505050565b600060408201905081810360008301526117e2818561165a565b90506117f16020830184611693565b9392505050565b60006020820190508181036000830152611812818461165a565b905092915050565b600080fd5b600080fd5b7f4e487b7100000000000000000000000000000000000000000000000000000000600052604160045260246000fd5b61185c82611649565b810181811067ffffffffffffffff8211171561187b5761187a611824565b5b80604052505050565b600061188e6113ae565b905061189a8282611853565b919050565b600067ffffffffffffffff8211156118ba576118b9611824565b5b6118c382611649565b9050602081019050919050565b82818337600083830152505050565b60006118f26118ed8461189f565b611884565b90508281526020810184848401111561190e5761190d61181f565b5b6119198482856118d0565b509392505050565b600082601f8301126119365761193561181a565b5b81356119468482602086016118df565b91505092915050565b60008060008060808587031215611969576119686113b8565b5b600085013567ffffffffffffffff811115611987576119866113bd565b5b61199387828801611921565b94505060206119a48782880161158e565b93505060406119b58782880161158e565b925050606085013567ffffffffffffffff8111156119d6576119d56113bd565b5b6119e287828801611921565b91505092959194509250565b7f4e487b7100000000000000000000000000000000000000000000000000000000600052602260045260246000fd5b60006002820490506001821680611a3557607f821691505b602082108103611a4857611a476119ee565b5b50919050565b7f4e487b7100000000000000000000000000000000000000000000000000000000600052603260045260246000fd5b7f4e487b7100000000000000000000000000000000000000000000000000000000600052601160045260246000fd5b6000611ab78261156d565b91507fffffffffffffffffffffffffffffffffffffffffffffffffffffffffffffffff8203611ae957611ae8611a7d565b5b600182019050919050565b6000611aff8261156d565b9150611b0a8361156d565b925082821015611b1d57611b1c611a7d565b5b828203905092915050565b6000611b338261156d565b915060008203611b4657611b45611a7d565b5b60018203905091905056fea26469706673582212203f3a7280b24e7f8363f03625f489e304a032fc3178710264f79a03ca74f3904b64736f6c634300080d0033",
  "immutableReferences": {},
  "source": "pragma solidity ^0.8.13;\n\ncontract medical {\n    struct patient {\n        string name;\n        uint256 age;\n        address[] myDoctors;\n        uint256[] reportNumber;\n        string reports;\n    }\n\n    struct doctor {\n        string name;\n        uint256 age;\n        address[] myPatients;\n    }\n\n    // uint creditPool;\n    address[] public patientList;\n    address[] public doctorList;\n\n    mapping(address => patient) patientInfo;\n    mapping(address => doctor) doctorInfo;\n    mapping(address => address) Empty;\n    mapping(address => string) patientRecords;\n\n    function add_agent(\n        string memory _name,\n        uint256 _age,\n        uint256 _designation,\n        string memory _hash\n    ) public returns (string memory) {\n        address addr = msg.sender;\n\n        if (_designation == 0) {\n            patient memory p;\n            p.name = _name;\n            p.age = _age;\n            p.reports = _hash;\n            patientInfo[msg.sender] = p;\n            patientList.push(addr);\n            return _name;\n        } else if (_designation == 1) {\n            doctorInfo[addr].name = _name;\n            doctorInfo[addr].age = _age;\n            doctorList.push(addr);\n            return _name;\n        } else {\n            revert();\n        }\n    }\n\n    function get_patient(address addr)\n        public\n        view\n        returns (\n            string memory,\n            uint256,\n            uint256[] memory,\n            address,\n            string memory\n        )\n    {\n        return (\n            patientInfo[addr].name,\n            patientInfo[addr].age,\n            patientInfo[addr].reportNumber,\n            Empty[addr],\n            patientInfo[addr].reports\n        );\n    }\n\n    function get_doctor(address addr)\n        public\n        view\n        returns (string memory, uint256)\n    {\n        return (doctorInfo[addr].name, doctorInfo[addr].age);\n    }\n\n    function permit_access(address addr) public payable {\n        doctorInfo[addr].myPatients.push(msg.sender);\n        // uint256 patientAccessNumber = doctorInfo[addr].myPatients.length - 1;\n        patientInfo[msg.sender].myDoctors.push(addr);\n        // uint256 doctorAccessNumber = patientInfo[addr].myDoctors.length - 1;\n    }\n\n    function remove_element_in_array(address[] storage Array, address addr) internal\n    {\n        bool check = false;\n        uint256 del_index = 0;\n        for (uint256 i = 0; i < Array.length; i++) {\n            if (Array[i] == addr) {\n                check = true;\n                del_index = i;\n            }\n        }\n        uint256 len = Array.length;\n        if (!check) revert();\n        else {\n            if (Array.length == 1) {\n                delete Array[del_index];\n            } else {\n                Array[del_index] = Array[len - 1];\n                delete Array[len - 1];\n            }\n            len--;\n        }\n    }\n\n    function remove_patient(address paddr, address daddr) public {\n        remove_element_in_array(doctorInfo[daddr].myPatients, paddr);\n        remove_element_in_array(patientInfo[paddr].myDoctors, daddr);\n    }\n\n    function get_accessed_doctorlist_for_patient(address addr)\n        public\n        view\n        returns (address[] memory)\n    {\n        address[] storage doctoraddr = patientInfo[addr].myDoctors;\n        return doctoraddr;\n    }\n\n    function get_accessed_patientlist_for_doctor(address addr)\n        public\n        view\n        returns (address[] memory)\n    {\n        return doctorInfo[addr].myPatients;\n    }\n\n    function revoke_access(address daddr) public payable {\n        remove_patient(msg.sender, daddr);\n    }\n\n    function get_patient_list() public view returns (address[] memory) {\n        return patientList;\n    }\n\n    function get_doctor_list() public view returns (address[] memory) {\n        return doctorList;\n    }\n\n    function get_hash(address paddr) public view returns (string memory) {\n        return patientInfo[paddr].reports;\n    }\n\n    function set_hash(address paddr, string memory _hash) internal {\n        patientInfo[paddr].reports = _hash;\n    }\n}\n",
  "sourcePath": "/home/malav312/hackathon/medygon/contracts/medical.sol",
  "compiler": {
    "name": "solc",
    "version": "0.8.13+commit.abaa5c0e.Emscripten.clang"
  },
  "schemaVersion": "3.4.6",
  "updatedAt": "2022-03-27T02:11:36.793Z",
  "devdoc": {
    "kind": "dev",
    "methods": {},
    "version": 1
  },
  "userdoc": {
    "kind": "user",
    "methods": {},
    "version": 1
  }
}